:020000040800F2
:10000000285C0020910200088B48000897400008F7
:1000100089480008052300086D550008000000000D
:10002000000000000000000000000000F9010008CE
:1000300007230008000000003D020008954F00085B
:10004000AB020008AB020008AB020008AB020008DC
:10005000AB020008AB020008AB020008AB020008CC
:10006000AB020008AB020008AB020008AB020008BC
:10007000AB020008AB020008AB020008AB020008AC
:10008000AB020008AB020008AB020008AB0200089C
:10009000AB020008AB020008AB020008AB0200088C
:1000A000AB020008AB020008AB020008AB0200087C
:1000B000AB020008AB020008AB020008AB0200086C
:1000C000AB020008AB020008AB020008AB0200085C
:1000D000AB020008AB020008AB0200086155000843
:1000E000AB020008AB020008AB020008AB0200083C
:1000F000AB020008AB020008AB020008AB0200082C
:10010000AB020008AB020008AB020008AB0200081B
:10011000AB020008AB020008215000082D50000877
:10012000AB020008AB020008AB020008AB020008FB
:1001300000F002F800F050F80AA090E8000C8244A9
:100140008344AAF10107DA4501D100F045F8AFF286
:10015000090EBAE80F0013F0010F18BFFB1A43F0A5
:10016000010318474077000060770000103A24BF71
:1001700078C878C1FAD8520724BF30C830C144BF0C
:1001800004680C607047000000230024002500264E
:10019000103A28BF78C1FBD8520728BF30C148BFEA
:1001A0000B607047662907F05882642900F0A4802C
:1001B000002070471FB500F059FD04000020002109
:1001C00006F0A2FD401C60600020002106F086FDC4
:1001D000E0601FBD10B510BD00F0B8FE1146FFF77E
:1001E000E9FF05F0E3FA01F037F903B4FFF7F2FF96
:1001F00003BC01F0A5FB0000224B19680868B0E8B9
:10020000F00F80F30988BFF36F8F4FF0000080F389
:1002100011884EF00D0E704700000000064800687F
:10022000006880F3088862B661B6BFF34F8FBFF3F2
:100230006F8F00DF00BF00BF08ED00E0EFF3098023
:10024000BFF36F8F0F4B1A6820E9F00F106008B5ED
:100250004FF0500080F31188BFF34F8FBFF36F8FC3
:1002600006F03AF84FF0000080F31188BDE808402E
:1002700019680868B0E8F00F80F30988BFF36F8F42
:10028000704700BF4C000020EFF30580704700006E
:100290000948804709480047FEE7FEE7FEE7FEE71A
:1002A000FEE7FEE7FEE7FEE7FEE7FEE70448054956
:1002B000054A064B704700001F5000083101000836
:1002C00028560020285C00202858002028580020AC
:1002D0000FB41CB5074B06AA7B44694600900598ED
:1002E00000F015FC0020694600F024FC1CBC5DF801
:1002F00014FB0000590800002DE9F04106460024D7
:1003000010687529314616A510D0AFF3008000287B
:1003100002DA404213A507E031688A0701D512A529
:1003200002E0490704D511A5012401E0AFF30080E4
:1003300000210A2206F1240709E0B0FBF2FCB0FB21
:10034000F2F302FB1C00303078541846491C002898
:10035000F3D123462A463046BDE8F04100F06BB9A0
:10036000000000002D0000002B0000002000000015
:100370002DE9F0474FF0000A89460446C0F820A056
:100380002046E1688847002876D0252806D0D4E9A1
:1003900001219047206A401C2062F1E7E168204675
:1003A00000258847C4F81CA006460027C4F818A0FA
:1003B0002A2E09D0304605F064F938B304EB8708DB
:1003C000303EC8F8186019E059F8041B204604EBC9
:1003D00087029161E1688847012F064618D1E069DC
:1003E000002820DA25F020051DE0D8F8180000EBE1
:1003F000800006EB40003038C8F818002046E1685D
:100400008847064605F03DF90028EED1012F0AD0B5
:100410002E2E08D12046E16888477F1C0646022F11
:1004200045F02005C4DBA069002803DA404245F00E
:100430000105A061E80701D025F01005B6B1A6F1CD
:100440004100192802D8203645F400654A46314655
:10045000204625604D46FFF7A5FE58B1012806D07D
:10046000ED1D25F0070000F1080989E704E005F11A
:10047000040985E730468AE7206ABDE8F08770B551
:10048000064600F0C9F80468054630460A220021F5
:1004900000F0A8FB2C6070BD10B5431C02E010F802
:1004A000011B71B18107FAD14FF0013202C88C1AD9
:1004B0008C4314EAC211F9D0C01A0A0603D0C01E38
:1004C00010BDC01A10BD0A0401D0801E10BD090263
:1004D000FCD0401E10BD032A40F2308010F0030C07
:1004E00000F0158011F8013BBCF1020F624498BF87
:1004F00011F801CB00F8013B38BF11F8013BA2F124
:10050000040298BF00F801CB38BF00F8013B11F09E
:10051000030300F02580083AC0F0088051F8043B3E
:10052000083A51F804CBA0E80810F5E7121D5CBFAB
:1005300051F8043B40F8043BAFF30080D20724BFDE
:1005400011F8013B11F801CB48BF11F8012B24BF72
:1005500000F8013B00F801CB48BF00F8012B7047C1
:1005600010B5203AC0F00B80B1E81850203AA0E84E
:100570001850B1E81850A0E81850BFF4F5AF5FEA82
:10058000027C24BFB1E81850A0E8185044BF18C935
:1005900018C0BDE810405FEA827C24BF51F8043BDC
:1005A00040F8043B08BF7047D20728BF31F8023B30
:1005B00048BF11F8012B28BF20F8023B48BF00F8C4
:1005C000012B70474FF0000200B513469446964643
:1005D000203922BFA0E80C50A0E80C50B1F1200156
:1005E000BFF4F7AF090728BFA0E80C5048BF0CC004
:1005F0005DF804EB890028BF40F8042B08BF704762
:1006000048BF20F8022B11F0804F18BF00F8012BD3
:10061000704770477047704700487047C8550020C2
:1006200010B5FFF7F9FF006810BD10B50446FFF7DD
:10063000F3FF046010BD2DE9F0470D469946924640
:10064000044600F124080168880604D5E06921F019
:100650001001216000E00120A84201DD471B00E0FD
:100660000027A1697A1902EB0900081AA061207815
:10067000C00602D42046AFF30080002608E0D4E98B
:1006800001211AF806009047206A401C761C20625F
:100690004E45F4DB2078C0060AD52046AFF3008033
:1006A00006E0D4E9012130209047206A401C2062F6
:1006B000381EA7F10107F4DC07E0D4E9012118F89E
:1006C00005009047206A401C2062281EA5F1010504
:1006D000F3DC2046AFF300802078000602D502202C
:1006E000BDE8F0870120FBE770472DE9FF4F0C467E
:1006F0001E464FF0FF378BB0D2E90001DDF8608075
:100700000A908A46C1F30A5505B93D4600210846BC
:100710004FF00000BAF1000F00F4400005DA00EBE2
:1007200080004FF4400101EA50004FEA9059B9F1BE
:10073000010F00DDB9460A9850EA4A000ED044F68F
:100740001050A5F2FF3545432F14B8F1000F1ED00D
:100750007542291E1EDDC9F100021CE0B8F1010F2F
:100760004FF0000001D0302103E0F24305E02154B6
:10077000401CB042FBDB30460022002121540B9983
:10078000C1F80880C1E900200FB0BDE8F08FBD1BA3
:100790006D1CDEE74A4600DA694206A800F068FBF5
:1007A00006AB93E8070003AB83E8070050460A99BD
:1007B00001F0E0F88DE80700A0F500501F38009028
:1007C0000398002D09DD42F21F014A46084403A99F
:1007D0000390684601F069FB08E0A0F500504A4626
:1007E0001F3803A90390684601F087FB8DE80700D6
:1007F0000004000C03D04FF0FF30410800E0104629
:10080000B8F1000F03D00022009215461EE0751EBD
:1008100005D400F02FFA303262556D1EF9D5B3467B
:100820000122084302D000227F1C04E020783028F7
:1008300001D100227F1E002A099786D01DE0112DCC
:1008400007DA00F017FA303262556D1C50EA0102E7
:10085000F5D1084302D00098C8B10EE00021681E0F
:1008600005E0235C625C63542254401E491C8142B3
:10087000F7DBAB46A81B401E0990002004F80B00D4
:100880000B98099AC0F80880C0E9002B7CE7112674
:100890004FF0000859E72DE9F04F88460446D21D75
:1008A00022F0070191B0D1E90001CDE90A0104F07D
:1008B0005EFE02460B98C00F01D02D2007E0206895
:1008C000810701D52B2002E0202101EAC000032A84
:1008D000099001D0072A05DB03464146204600F077
:1008E00017FA0BE12078800601D5E06900E00620C8
:1008F000B8F1650F814606D0B8F1660F18D0B8F18F
:10090000670F70D131E00020B9F1110F009001DBC9
:10091000112301E009F101030AAA01A90CA8FFF7BC
:10092000E4FEDDE90C70002609F10105834647E08D
:1009300001204B4600904FF000470AAA01A90CA8DD
:10094000FFF7D3FEDDE90DB00C995D46002610B926
:1009500009F101000D18B9EB050003D4C0F1FF3611
:1009600009F10105A5EB09002BE0B9F1010F01DA4E
:100970004FF001090020B9F1110F0090484601DD48
:10098000112300E003460AAA01A90CA8FFF7ADFE57
:10099000DDE90C704D4600268346207800070AD416
:1009A000AB4500DA5D4601A8012D04DD411911F8BF
:1009B000011C302907D04F4502DA17F1040F04DA81
:1009C000012082460FE06D1EEEE7002F02DCED1BDA
:1009D0003E4403E0781CA84200DD7D1CB81B00F1FA
:1009E000010A4FF000472078000703D4AA4501DB35
:1009F0004FF0FF3A0021B7F1004F0DF143088DF899
:100A0000431024D002202B23002F01DA7F422D2314
:100A10000A21021EA0F1010000DC5FB197FBF1FC8E
:100A200097FBF1F201FB1C7C17460CF1300C08F827
:100A300001CDEEE7A8F1010003702188090501D579
:100A4000452100E06521A0F1010800F8011C09988A
:100A50000FA9A1EB0807FF1D00B10120411901EB0F
:100A6000EA70A1693844081A401EA0612078C006C7
:100A700002D42046AFF30080099828B1D4E90121BF
:100A80009047206A401C20622078C00622D520466C
:100A9000AFF300801EE0002E04DBB34502DD01A8A9
:100AA000805D00E03020D4E901219047206A401C9D
:100AB0002062761CAAF101005FEA000A0AD100F068
:100AC000D5F8C0680168405CD4E901219047206AEC
:100AD000401C2062281EA5F10105DCDC07E0D4E9FA
:100AE000012118F8010B9047206A401C2062381E33
:100AF000A7F10107F3DC2046AFF30080032011B01B
:100B000043E6000001694A1C02610878704700B59D
:100B10008FB0CDE901310021059105497944CDE936
:100B2000031011466846FFF723FC0FB000BD00001C
:100B3000E5FFFFFF0A6802F8010B0A60704700003A
:100B40000FB4002300B589B00CA900910B99CB60BC
:100B5000214B7B440693214B7B44079304236FF086
:100B60000042CDE901321E4A7A446B4608920246A1
:100B7000002006F0D4FD09B05DF814FB70B5064600
:100B80004FF0FF3015460C46324686B00091CDE955
:100B9000010169460020049004A8FFF7D1FF024636
:100BA0000498211825B108B1084600E020462860C5
:100BB000049800280DD0002A02DD0098884208D051
:100BC0003246081B69460094CDE9010404A8FFF7EA
:100BD000B7FF06B070BD00003B02000053020000EA
:100BE000930100002DE9F04791460F4680460446E8
:100BF000002614F8015B2DB100F030F80068405D6C
:100C0000C007F6D12B2D02D02D2D18D0641E4A46D8
:100C10003946204600F0DCF827B13968A14201D1FD
:100C2000C7F800804FF0020471050BD54042002840
:100C300003DDFFF7F1FC0460A007BDE8F08746F490
:100C40008066E4E70028F8DAFFF7E6FC04606FF05E
:100C50000040F2E700487047C855002010B500F08A
:100C600005F8001D10BD00BFA160000000487047DE
:100C7000E855002030B5B0F10A024FEA900E71F14C
:100C800000034EEA817EB0EB0E0061EB91014FEA6A
:100C9000101E4EEA017E10EB0E0041EB11114FEADF
:100CA000102E4EEA016E10EB0E0041EB11214FEABF
:100CB000104E4EEA014E10EB0E0041EB1141401870
:100CC00041F100014FEAD00040EA41704FEAD10102
:100CD00010EB80054FEA810444EA907444EB010470
:100CE0006D1944EB0404521BA3414FF0000348BFAD
:100CF0000A3200D530BD401C41F1000130BD10B5B5
:100D00000446FFF7ABFF0068005D00F0010010BD76
:100D10002DE9F0411F46044603260168072A01F425
:100D2000006004DB08B116A505E016A503E008B1D4
:100D300015A500E015A521F010002060A069C01ED7
:100D4000A0610FB1401EA0612046AFF300804FB1FB
:100D5000D4E9012138469047206A401C2062C01C1B
:100D6000206206E0206AFAE7D4E9012115F8010BB8
:100D70009047761EF8D22046AFF30080BDE8F081A0
:100D80004E414E006E616E00494E4600696E66002F
:100D9000426842B1016811F8013B23B1521EC0E91B
:100DA0000012184670470121C160881E70474268D2
:100DB0005AB1C368016843B983688B4205D0491EA4
:100DC000521CC0E90012002070474FF0FF307047FE
:100DD0002DE9F05F824615468B4600270AF1010493
:100DE000B9460078302801D09DB113E014F8010B0A
:100DF0000127782803D0582801D045B10AE00DB169
:100E0000102D07D1002714F8010B102502E008254A
:100E100000E00A250026B0460EE005FB080005FBB1
:100E200006F101271FFA80F801EB1046B6F5803F66
:100E300000D3B94614F8010B294600F0ACF800289D
:100E4000EBDABBF1000F05D00FB1641E00E0544691
:100E5000CBF80040B9F1000F06D0FFF7DDFB02210F
:100E60000160C81EBDE8F09F48EA0640FAE70000AE
:100E70002DE9F047814616468AB0334878440DC8BC
:100E80008DE80D0030487844801C03AC0DC884E820
:100E90000D0041F69B300844372190FBF1F290FBA6
:100EA000F1F5A5F1800501FB12041B3C02D564425B
:100EB000012000E00020DFF890A080460027FA44DF
:100EC000AAF1BE0A0DE0E00709D03246684607EBFA
:100ED00047010AEB810101F010F88DE8070064106A
:100EE0007F1C002CEFD1184F7F44AC3F18E0E8077F
:100EF00014D007EB04100DF1180A90E80E008AE8F0
:100F00000E00C068F04201D198190890324606A937
:100F100003A800F0F2FF03AB83E807006D10641C28
:100F2000002DE4D132466946B8F1000F03A802D083
:100F300000F0BBFF01E000F0E0FFC9E90001C9F8E3
:100F400008200AB0BDE8F087E86900007546FFF7A1
:100F500081FEAE4605006946534620F007008546EF
:100F600018B020B5FFF7A2F9BDE820404FF0000609
:100F70004FF000074FF000084FF0000B21F0070181
:100F8000AC46ACE8C009ACE8C009ACE8C009ACE8C4
:100F9000C0098D4670473A2800D2303820F0200230
:100FA000412A01D3A2F13700884201D34FF0FF302C
:100FB000704700002DE9FF4F064689B00878FF28EA
:100FC00006D0491C2D2805D000244FF0000908E068
:100FD00000200CE00124F8E709EB8903491C00EB31
:100FE00043090878FF28F7D114B1C9F10000814600
:100FF000107800252C46AA4629462D2801D02B28FA
:1010000004D1521C2D2813D0002082468B46107824
:10101000FF280FD04FF0000C0A21521CA5FB0178CD
:1010200004FB018105FB0C11C5194BEB0104EEE734
:101030000120EAE7002108464FF00000BAF1000F56
:1010400002D000EB80004008C0F38158B8F1010FD6
:1010500001DD4FF0FF380C9809EB000755EA04005A
:1010600009D04FF0020917F5FA7F0BDA4FEACA7080
:10107000C6E900B012E04FEACA70C6E900B00DB090
:10108000BDE8F08FB7F5FA7F0DDDF0487844D0E980
:101090000010C6E9001040EACA707060FFF7BCFAA1
:1010A000C0F80090EBE7391E02DAC8F1000200E058
:1010B000424600DA794206A8FFF7DAFE06AB93E86B
:1010C000070003AB83E8070044F23E005BEA04013B
:1010D0000090584604D144F21E012C465D46009112
:1010E000210C0904014306D10099240444EA154463
:1010F0002D041039009104F07F41014306D100997D
:10110000240244EA15642D020839009104F070416C
:10111000014306D10099240144EA15742D01091FE9
:10112000009104F04041014306D10099A40044EA33
:101130009574AD00891E009104F00041084304D16C
:1011400000986D196441401E009042466846002F89
:10115000CDE9014503A902DD00F0E3FE01E000F066
:10116000B8FEBAF1000F04460D4601D084F00044E9
:1011700040F2FF7724F00040284303D0C4F30A5024
:10118000B84212D1FFF748FAC0F80090C4F30A50F1
:10119000B8420AD1AE487844D0E90010C6E9001040
:1011A00004F000410843706069E7C6E9005466E74F
:1011B0002DE9FF4F1F464FF0000A4FF0FF3845461C
:1011C00091B0D7E90146CDF83CA0FFF74FFDC068CC
:1011D0000168405C1090B96912986D1C8847396AA3
:1011E000814688470028F6D1B9F1FF3F0AD0002E8A
:1011F00024F4D06411DDB9F12B0F08D0B9F12D0F13
:101200000BD102E0404615B03AE744F48064B96976
:1012100012986D1C8847761E8146600504A901D589
:101220002D2000E02B20002E01F1010B0DF13008E4
:101230008DF810003FDDB9F1690F08D0B9F1490F01
:1012400005D0B9F16E0F02D0B9F14E0F1CD13B465B
:1012500001A8009580E85002DDE912126FF002004B
:1012600006F061FAC11CCED10EE0B96912986D1C6E
:10127000884781461398761E44F4007405600F98E1
:10128000401C002E0F9016DDB9F1300FEDD0B9F1F2
:10129000780F02D0B9F1580F0DD10F9801280AD15B
:1012A0003B46CDE90054DDE91212001F029606F01C
:1012B00038FAC11CA7D1109989453ED144F0800469
:1012C00006E01399681CAAF1010A44F4007408604E
:1012D000B9696D1C1298761E884730288146F0D077
:1012E0002BE01099894505D1200603D4761E44F0E1
:1012F000800418E0484604F0C4F908B3761E0DF1E6
:1013000023018B4544F4007408D2A9F130000BF896
:10131000010B200607D5AAF1010003E0200602D444
:101320000AF101008246A00502D51399681C0860E5
:10133000B96912986D1C88478146002ED1DC53E0B4
:10134000002E51DDB9F1650F02D0B9F1450F4BD137
:10135000A00549D5B9696D1C1298761E24F4407415
:101360008847002E81460CDD2B2804D0B9F12D0FC3
:1013700007D144F48074B96912986D1C8847761EB1
:101380008146E00501D52D2100E02B2108F8011B45
:10139000CDF8008021E0761E0DF13901884544F436
:1013A00000740CD2A9F1300010F0FF0088F80000A2
:1013B00002D10099884509D908F1010806E0E00545
:1013C00001D5244801E042F20F708246B9691298B3
:1013D0006D1C8847814613980560002E04DD484641
:1013E00004F04FF90028D6D1F96912988847FF20F8
:1013F00053468BF8000088F8000000200A900B90FC
:1014000004AA0CA90AA8FFF7D5FDA00502D46FF025
:101410000100F8E614F0240F0AD0E00714D1386870
:10142000DDE90A12031D3B600068C0E900120BE011
:101430000AA9684604F0CEF8E00705D13868009A9A
:10144000011D3960006802602846DCE6346800004F
:101450002A670000F1D8FFFF10B50446AFF3008003
:101460002046BDE81040FEF7C0BE00004FF0013C32
:1014700050F8042B51F8043B9A4221D1A2EB0C0303
:10148000934313EACC1317D150F8042B51F8043BC3
:101490009A4215D1A2EB0C03934313EACC130BD160
:1014A00050F8042B51F8043B9A4209D1A2EB0C03EB
:1014B000934313EACC13DBD04FF00000704700BF1A
:1014C000D01A01BAB1FA81F101F0180122FA01F043
:1014D000CB40C1F12001DBB2C0B2C01A2CFA01F33B
:1014E000D11A914311EAC311E6D170472DE9FF4F9C
:1014F0001F464FF03C0987B04FF00042DDE9141061
:1015000001F10108DDF858A002EA405003900020E4
:1015100005908346054604460490B969461E08981E
:101520008847AAF1010A0290BAF1000F3BDD029848
:101530002E2815D01021FFF72EFD00282EDB4FF0AE
:10154000010B0599014317D0B9F1000F0BDB4A4697
:10155000C11700F0FBF905430C43A9F1040905E0AC
:10156000012004900BE008B145F001050120059031
:10157000049820B9361D02E0049800B1361FB969FD
:10158000089808F101088847BBF1000FAAF1010A89
:101590000290C9D00999C1F80080C5E70298702867
:1015A00008D0502806D0F96908988847BBF1000F89
:1015B00014D04FE0002002900120BBF1000F0490F6
:1015C00009D0B969089808F101088847AAF101090A
:1015D000B9F1000F07DCF969089888476FF001003E
:1015E0000BB0BDE8F08F2B2804D02D280CD14FF084
:1015F000FF300490B969089808F101088847A9F1FB
:101600000109B9F1000FE6DD411CE4D00A21FFF722
:10161000C2FC0028DFDB029908F1010801EB81011F
:1016200000EB41000290B969089888470A21FFF74A
:10163000B2FC099AA9F10109B9F1000FC2F80080C2
:1016400001DD0028E7DAF9690898884704990298CB
:1016500000FB016655EA040004D004F04041090093
:1016600002D006E0039898E0A40044EA9574AD0027
:10167000B61E04F00041080002D16D196441761EC7
:10168000159810F0240F03D04FF00B095C4803E0CD
:101690004FF028096FF07D008246564507DAAAEB25
:1016A00006018944B9F1410F01DD4FF041090120E4
:1016B0000021A9F1010200F049F9024628400B4639
:1016C0002140084301D0012100E00021501E029179
:1016D00043F1FF3128402140084301D0012000E0C0
:1016E00000200299834651EA0B014FD000210846A1
:1016F0004FF00000039900F4400039B100EB800086
:101700004FF4400100EBD07001EA60008015012821
:1017100002DD4FF0FF3000E013D0401C36D00298BD
:1017200060B3BBF1000F0CD14A460120002100F04C
:101730000DF928402140084301D0012000E000209D
:10174000E0B101204A46002100F000F903464019AB
:101750000A4661412D1A8C4111D3B9F1400F09DDC0
:10176000159810F0240F02D0AAF1340603E0AAF174
:10177000170600E0761C00254FF0004406E05B1ED3
:1017800042F1FF3220EA030521EA0204CAF1010016
:10179000B04206DA1B4903980843019000200090EC
:1017A0000EE0039AC4F3D321E80A0A43164940EA3B
:1017B00044500A433146CDE90002684603F056FF23
:1017C000159810F0240F0BD01598C00715D1386864
:1017D000DDE90012031D3B600068C0E900120CE067
:1017E00002A8694603F0F6FE1598C00705D13868CF
:1017F000029A011D3960006802604046F0E6000070
:1018000002FCFFFF0000F07F0000F03F2DE9FF4FDA
:1018100092461D4685B04FF00041DDE9124BDDE9EF
:1018200014727F1E01EA4B50414940F0FF4940EAE3
:101830000108002122F020004928049102D04E28FE
:1018400028D04CE03BA0012607C88DE80700A96915
:101850000698641C88477F1E014606D41DF80600C2
:1018600018B121F0200181420BD0E9690698884720
:10187000032E34D0082E32D06FF0010009B0BDE83D
:10188000F08F761C032E01D0082EE0D1601CCAF820
:101890000000DCE7A9690698641C88477F1E2AD4EB
:1018A00020F02000412826D1A9690698641C8847A9
:1018B0007F1E20D420F020004E281CD1A969069854
:1018C000641C88477F1E48F4002849F48009CAF840
:1018D000004001D4282806D0E969069888475FEAC5
:1018E000CB7012D022E0A9690698641C88477F1E3D
:1018F00001D4002803DAE96906988847BCE729285B
:10190000F1D1641CCAF80040E9E71BF0240F07D0AE
:1019100028680499031D2B600068C0E9001805E0E1
:101920002868021D2A600068C0F800902046A5E7DC
:101930000000F07F494E46494E49545900000000CE
:1019400001491820ABBEFEE726000200B2F12003D9
:101950000AD5C2F1200301FA02F120FA03F300FADA
:1019600002F041EA0301704700FA03F14FF0000072
:10197000704770475FEA400C08BF91F0000F4FEAD4
:101980008C234FEAC12243EA51514FEA1C5018BF41
:1019900000F5F0404FEA300018BF41F000415FEA27
:1019A0006C5C00F02980BCF1FF3F08BF40F0804034
:1019B0007047130C06BF12044FF0100C4FF0000CD0
:1019C000130E04BF12020CF1080C130F04BF120116
:1019D0000CF1040C930F04BF92000CF1020CD30F16
:1019E00004BF52000CF1010C11464FF00002A0F1AF
:1019F0001F00A0EB0C00704711F0004F08BF7047AC
:101A000031F000413FF4D5AF0B0C06BF09044FF095
:101A1000100C4FF0000C0B0E04BF09020CF1080C67
:101A20000B0F04BF09010CF1040C8B0F04BF8900DC
:101A30000CF1020CCB0F04BF49000CF1010CCCF1EE
:101A40002003A0EB0C0022FA03F302FA0CF241EAA5
:101A5000030100F10100704720F07F4C80EA030091
:101A600023F07F47ACEB070303F57C5300F0004005
:101A700003F1FF032DE980494FEA154B09B44FEA02
:101A8000144325EA0B4E24EA03480FF2042606EB22
:101A9000132749083E785FEA320203FB0667C7F561
:101AA000000707FB06F64FEA54374FEAD64606F121
:101AB000020607FB066CCCF1005C4FEA1C472CEADF
:101AC000074C07FB06F40CFB06F504EB15464FEA42
:101AD000961634BF00204FF000404FEAD13706FB86
:101AE00007FC4FEA1C4C0CFB0BF7D21B03FB0CF75B
:101AF00061EB07010CFB0EF7B0EB074072EB1742EE
:101B00000CFB08F734BFA2EB0742B2EB074261EBD4
:101B100017414FEA0C444FEA910706FB07FC4FEAD6
:101B20001C4C0CFB0BF7B0EBC74072EB573203FBBE
:101B30000CF734BFA2EBC742B2EBC74261EB57319F
:101B40000CFB0EF7B0EBC70072EB57720CFB08F7FB
:101B500034BFA2EBC702B2EBC70261EB5771039F20
:101B60004FEA816141EA921104EBCC044FEAD1378C
:101B70004FEA826206FB07FC42EA90124FEA80605D
:101B80004FEA1C4C0CFB0BF7D21B03FB0CF761EB71
:101B900007010CFB0EF7B0EB074072EB17420CFB92
:101BA00008F734BFA2EB0742B2EB074261EB1741E3
:101BB0004FEA8C554FEA910704EB9C2406FB07FC87
:101BC0004FEA1C4C0CFB0BF7B0EBC74072EB5732E3
:101BD00003FB0CF734BFA2EBC742B2EBC74261EB89
:101BE00057310CFB0EF7B0EBC70072EB57720CFBD2
:101BF00008F734BFA2EBC702B2EBC70261EB577123
:101C000015EB4C254FEA816141EA92114FEA82625D
:101C10004FEAD13742EA901206FB07FC44F1000478
:101C20004FEA80604FEA1C4C0CFB0BF7D21B03FB06
:101C30000CF761EB07010CFB0EF7B0EB074072EB02
:101C400017420CFB08F734BFA2EB0742B2EB074286
:101C500061EB174115EB1C154FEA813141EA9241C6
:101C60004FEA823242EA90424FEA80304FEA0C76E5
:101C700044F1000448EA03434EEA0B484FF0000EDB
:101C8000B2EB080C71EB030724BF624639464EEBFA
:101C90000E0E4FF0000B0018524149414BEB0B0B5D
:101CA000B2EB080C71EB03077BF1000B24BF62461B
:101CB00039464EEB0E0E4FF0000B001852414941D1
:101CC0004BEB0B0BB2EB080C71EB03077BF1000B3A
:101CD00024BF624639464EEB0E0E51EA020718BF8A
:101CE00046F0010616EB0E7655F1000254F10001A4
:101CF00003D5BDE88901BDE80088BDE88901BDE8DC
:101D00000048B619524141EB0101A3F101037047AC
:101D100080807F7E7D7C7B7A797877767675747328
:101D2000727171706F6E6E6D6C6C6B6A6A696868E7
:101D3000676666656464636362616160605F5F5E7D
:101D40005E5D5D5C5C5B5B5A5A59595858575756F3
:101D50005655555554545353525252515150505058
:101D60004F4F4F4E4E4D4D4D4C4C4C4B4B4B4A4AAA
:101D70004A494949484848474747474646464545EE
:101D80004544444444434343434242424241414127
:101D900046EA0646A3F570534FEA164646EA42560F
:101DA0004FEAD22242EA415210B54FEAD121A3F1C3
:101DB000010300F017F820F0004000F1010C00F0E2
:101DC000004701EB00501146BCF5006F40EA0700E8
:101DD00000D210BD02484FF0000140EA070010BDDC
:101DE0000000F07F002B26D4770021D01CB54FEAED
:101DF000370703B44FF010004FF010014FF0000010
:101E00000FBCBDE810400BF1010BBBF1010F08BF87
:101E10005FEA170722BF12F1010211F101014FF031
:101E2000004143F1000300F0004043EA0000704726
:101E3000F9D35708DAE746EA064613F1400F4FEAAE
:101E400016461FDD13F1200FDFBF16430A4600219F
:101E500020335B42C8D0C3F1200746EA064602FAA7
:101E600007F74FEA164646EA0706C3F1200722FAAB
:101E700003F201FA07F721FA03F14FF0000342EAF7
:101E80000702B1E746EA020646EA06464FEA164668
:101E900046EA0106BCBF46EA0646360C4FF0000390
:101EA0004FF000024FF000019EE72DE9C048934635
:101EB00030B491E8380007C831EA400C48BF34EA32
:101EC000430C03D5FFF7C8FDFFF78CFFF0BCBDE85E
:101ED00000882DE9C048934630B491E8380007C81F
:101EE00031EA400C48BF34EA430C03D5FFF7B4FD98
:101EF000FFF74EFFF0BCBDE800882DE9C0489346CF
:101F000030B491E8380007C810F0804F08BF13F0D4
:101F1000804F03D100F019F8FFF764FFF0BCBDE873
:101F200000882DE9C048934630B491E8380007C8CE
:101F300010F0804F08BF13F0804F03D100F005F878
:101F4000FFF726FFF0BCBDE8008820F07F4780EA5D
:101F5000030023F07F4C07EB0C03A3F57C5300F048
:101F60000040A3F1FE0392F0000F00F0B38095F063
:101F7000000F00F077802DE901494FEA11404FEA48
:101F8000144621EA004800FB06FC24EA064708FB49
:101F900006F607FB08F800FB07F718EB06484CEBC2
:101FA000164C4FEA124B18EB07484FEA15464CEB1C
:101FB000174022EA0B4E0BFB06FC25EA06470EFBF8
:101FC00006F607FB0EFE0BFB07F71EEB064E4CEB6F
:101FD000164C4FF000061EEB074E4CEB174B18EB60
:101FE0000B0840F1000018EB0E0B58EB000840F115
:101FF00000008F1A4FF000013CBFC943661B14BF9D
:10200000B5EB040C00213CBFC943F61B4FEA174453
:102010004EEA8E0E27EA04454FEA1C4704FB07628E
:102020002CEA074C05FB07F70CFB05F604FB0CFC40
:1020300016EB074642EB174216EB0C4642EB1C42EE
:102040001BEB060658EB0202414146EA9E0601D50B
:10205000BDE80189B619524141EB0101A3F1010329
:10206000BDE801894FEA14454FEA114724EA0546C5
:1020700021EA074C05FB07F406FB07F70CFB06F10A
:1020800005FB0CFC11EB074144EB17444FEA1247E8
:1020900011EB0C4144EB1C4422EA074C05FB07F210
:1020A00006FB07F70CFB06F605FB0CFC16EB0746D8
:1020B00042EB174216EB0C4642EB1C456A1854F1F2
:1020C000000148BF7047B619524141EB0101A3F12D
:1020D0000103704795F0000F37D04FEA11424FEAE5
:1020E000144721EA024624EA074C02FB07F106FBEB
:1020F00007F70CFB06F402FB0CFC14EB074441EB66
:1021000017414FEA154714EB0C4441EB1C4125EAFB
:10211000074C02FB07F506FB07F70CFB06F602FB74
:102120000CFC16EB074645EB174516EB0C4645EB4A
:102130001C42121951F1000148BF7047B6195241B3
:1021400041EB0101A3F1010370474FEA14454FEA47
:10215000114724EA054621EA074C05FB07F106FB77
:1021600007F70CFB06F24FF0000605FB0CFC12EB28
:10217000074241EB174112EB0C4251EB1C4148BFA7
:102180007047921841EB0101A3F101037047000071
:102190002DE9FE4F06460020009000F09FFB4FF413
:1021A000000105468E4201DB304601E086F000402A
:1021B00081462820454F3C24DFF81481DFF814B114
:1021C0004FF4006A02908E4210DB0022012140464B
:1021D00000F07FFB01225146584600F07AFB0122B5
:1021E00051023D4800F075FB002210E0012211462B
:1021F000404600F06EFB00225146584600F069FB55
:1022000000224FF40071344800F063FB01224021AA
:10221000404600F05EFBDFF8C4A0DFF8C4B04846DB
:10222000394605F0A5F9019040E000BF02F054F9ED
:1022300005F040F82B49496805F09AF92A49074604
:10224000884203D22948874200DA002700F046FB83
:102250008046401B05F046F8254904F04DFF064630
:1022600024484546864200DD234E2449384604F082
:1022700043FF314605F07EF8014610F1FF4F01D3D0
:1022800080F00041009804F0C9FE014600904846E5
:1022900005F06EF91A49884200DA029CCAF800403B
:1022A000CBF80040052003F019FB0198009905F0D8
:1022B0002DF9BBD30020CAF80000CBF80000BDE820
:1022C000FE4F4FF4487000F053B9000000000C427C
:1022D00000140140001001400020014008000020CF
:1022E0000C00002010000020000048C200004842FE
:1022F00000007A44CDCCCC3D0AD7233C00000343F8
:1023000000002042FEE7704772B6FEE72DE9F0417B
:1023100001221B4D14022146284600F0DAFA14204F
:1023200003F0CCF900222146284600F0D2FA154CE1
:10233000DFF8548025464FF48046144F01E06D1EAF
:102340001BD03146384600F0BFFA0028F7D0104DB8
:1023500000202968486201E0641E0ED031463846EC
:1023600000F0B2FA0128F7D02868406A04F0BAFFFA
:10237000BDE8F041074904F0BFBE4046BDE8F0812A
:102380000014014040420F0000C07944000C01409D
:10239000700300200000684215480068C2B20020A7
:1023A0000146D30701D0001F0121930701D5C01EAC
:1023B000491C530701D5801E491C130701D5401E37
:1023C000491CD30601D5401C491C930601D5801C2D
:1023D000491C530601D5C01C491C120601D5001D1D
:1023E000491C044A09B19061704790697047000028
:1023F000081C01401000002010B590F821100022A8
:10240000022905D00421816380F82020012010BD1D
:1024100001680B6823F00E030B6001680B6823F062
:1024200001030B6090F84030C46B012101FA03F303
:10243000636080F8211080F82020104610BD000055
:102440002DE9F05F90F821100024022903D0042127
:102450008163012485E001680A6822F00E020A60A7
:1024600001680A6822F001020A603F4E3E4FB21531
:10247000DFF8F4C0DFF8F090DFF8ECA0DFF8E8B0A8
:10248000DFF8E4E00168783F13011502ACF1640C59
:10249000A9F15009AAF13C0AABF1280BAEF1140ED8
:1024A0004FF48018B14227D9B9420ED0614512D0FD
:1024B00049451DD0514518D0594518D0714501D115
:1024C000424615E0294EB14201D1012210E0274ECB
:1024D0001436B14201D110220AE0244E2836B1420E
:1024E00006D0224A3C32914201D11A4600E02A46E7
:1024F0001E49091F0A602BE0B94213D0614517D06D
:10250000494522D051451DD059451DD0714501D1B5
:1025100042461AE0B14202D14FF0807215E0134EEC
:10252000B14201D1012210E0104E1436B14201D166
:1025300010220AE00D4E2836B14206D00B4A3C323A
:10254000914201D11A4600E02A46074980394A6083
:10255000012180F82110002180F82010416B01B189
:1025600088472046BDE8F09F8000024008040240F2
:1025700070B5044600F0B2F90546601C02D004486C
:102580000078044400F0AAF9401BA042FAD370BDC1
:102590003C0000202DE9F0430023454F0F2581E04A
:1025A00001229A400A407BD023F00304E619D6F8B2
:1025B00008809C074FEA147C05FA0CF909EA080424
:1025C000DFF8F080404502D14FF0000824E0DFF84A
:1025D000E880404502D14FF001081DE0DFF8DC80C3
:1025E000404502D14FF0020816E0DFF8D4804045A4
:1025F00002D14FF003080FE0DFF8C880404502D158
:102600004FF0040808E0DFF8C080404502D14FF0E9
:10261000050801E04FF0060808FA0CF8A04522D1A1
:102620002A4CD4F800C02CEA020CC4F800C0241DC7
:10263000D4F800C02CEA020CC4F800C0234C0C34BF
:10264000D4F800C02CEA020CC4F800C0241FD4F84F
:1026500000C02CEA020CC4F800C0D6F808C02CEA6E
:10266000090CC6F808C0FF2A01D8064601E000F1AF
:1026700004064FEA830401D9A4F12004D6F800C06F
:1026800005FA04F82CEA080C4FF0040808FA04F8DC
:102690004CEA080CC6F800C0C46824EA0204C4600E
:1026A00003F1010331FA03F27FF47AAFBDE8F0835E
:1026B0000000014000080140000C014000100140F2
:1026C0000014014000180140001C014000040140BA
:1026D0002DE9F84FDFF8C8910024A9F1040B234637
:1026E0000F2709F1040AABF1040ED1E00125A54042
:1026F00006EA0502AA4276D1DFF8A8C14E68A6EB29
:102700000C0866452BD00DDC032E34D005DC36B327
:10271000012E19D0022E2FD11BE0112E16D0122E11
:102720002AD119E0B8F5881F19D006DCB8F5803F2A
:1027300015D0B8F5801F1FD111E0B8F5001F0ED0DD
:10274000B8F5041F18D10AE0CB6815E0CB681B1D53
:1027500012E0CB6808330FE0CB680C330CE08B68D9
:102760002BB1012B4FF0080303D0456104E0042393
:1027700002E0056100E00023FF2A01D8064601E0DF
:1027800000F104064FEA840501D9A5F12005D6F829
:10279000008007FA05FC28EA0C0803FA05F548EA68
:1027A0000508C6F800804D68ED0070D53E4DAE6955
:1027B00046F00106AE61AD6924F0030605F001059F
:1027C00000953A4D06EB050CDCF80850A607360FCD
:1027D00007FA06F825EA0805DFF8D480404503D15A
:1027E0004FF0000825E052E0DFF8C880404502D1F4
:1027F0004FF001081DE0DFF8C080404502D14FF0E6
:10280000020816E0DFF8B480404502D14FF003081B
:102810000FE0DFF8AC80404502D14FF0040808E03B
:10282000DFF8A080404502D14FF0050801E04FF0ED
:10283000060808FA06F848EA0508CCF808804D684A
:10284000D9F80060ED024D4601D5164300E09643ED
:102850002E604D68DAF80060AD02554601D516438A
:1028600000E096432E604D68DBF80060AD035D46E6
:1028700001D5164300E096432E604D68DEF80060F7
:10288000ED03754601D5164300E096432E60641CA7
:102890000A681646E2407FF429AFBDE8F88F0000D1
:1028A0000804014000001110001002400000014027
:1028B00000080140000C01400010014000140140DC
:1028C00000180140001C01408068084000D0012031
:1028D00070470AB1016170470904FBE7014880684D
:1028E000704700003C00002010B5040013D02420E5
:1028F00084F83D002068016821F001010160204654
:1029000000F096FA0020206484F83D0044F8300F6F
:10291000A073207310BD012010BD000070B504002D
:1029200025D094F83D00002520B984F83C5020467D
:1029300000F09AFA242084F83D002068016821F014
:10294000010101602068016841F4004101602068D4
:10295000016821F40041016000F034FC4D4A6168D7
:10296000914201D84C4900E04C49884201D20120F3
:1029700070BD4B492368B0FBF1F15E6826F03F065D
:102980000E435E606368934206D94FF496735943D1
:102990004FF47A73B1FBF3F12368491C1E6A26F0E9
:1029A0003F06314319626168914210D84900401EC8
:1029B000B0FBF1F2521CC2F30B02042A01D2042034
:1029C00022E0B0FBF1F0401CC0F30B001CE0A26859
:1029D000F2B301EBC10303EB0116431EB3FBF6F3A5
:1029E0005B1C43F480431B0549D092B301EBC10249
:1029F00002EB0111401EB0FBF1F0401CC0F30B00D4
:102A000040F4804040F400402168CA694CF6FF73EE
:102A10009A431043C861D4E9071001432068026853
:102A200022F0C00211430160D4E903010143206890
:102A3000826848F2FF339A4311438160D4E905016B
:102A400008432168CA6822F0FF021043C86001E011
:102A50000EE016E02068016841F001010160256484
:102A6000202084F83D00256384F83E50002070BD8E
:102A700001EB4106431EB3FBF6F35B1CB3E70120F9
:102A8000C2E701EB4101401EB0FBF1F0401CC0F376
:102A90000B00B7E7A086010080841E0000093D00FE
:102AA00040420F002DE9FF4F83B00025DDE910798A
:102AB0009A4693460446DDF848800095FFF70EFFDE
:102AC000064694F83D0020287CD11923012288492C
:102AD0002046009601F0F6FB0028F5D194F83C0062
:102AE00001286FD0012084F83C0020680168C907E4
:102AF00003D1016841F0010101602068016821F4FF
:102B000000610160222084F83D00402084F83E00EE
:102B100025646762A4F82A90608D20857548E0627C
:102B2000CDE9008653465A462046049901F0CCFA76
:102B300000287CD1208DDFF8C091202768B10128C2
:102B400014D00228206801681ED041F48061016021
:102B50002068416980690090BCE020684169816912
:102B60000091016841F400710160B3E020680168E0
:102B700021F48061016072B6206841698169009129
:102B8000016841F400710AE041F40061016072B62D
:102B90002068416981690091016821F480610160C8
:102BA00062B697E0032865D801280CD00228434676
:102BB0004FF000024946204600960BD001F082FB00
:102BC000A8BB0CE091E032464146204601F020FCD3
:102BD00068BB72E001F076FB48BB72B633E0206858
:102BE000016821F48061016072B620680069616A41
:102BF0000870606A401C6062208D401E2085608DD8
:102C0000401E60853D4846F2A8110068B0FBF1F017
:102C1000C0EBC00000EB80000090401E009007D089
:102C200020684069C04340070DD50098F5E727E0CC
:102C300044F8305F6773A573206940F0200020617D
:102C400062B625731CE02068016841F400710160E0
:102C500020680069616A0870606A401C6062218DAA
:102C6000491E2185618D491E618562B62168096909
:102C7000017026E032464146204601F0C9FB18B1FA
:102C8000012007B0BDE8F08F20680069616A087014
:102C9000606A401C6062208D401E81B22185608D7B
:102CA000401E608520684269D243520712D403292E
:102CB00003D1016821F48061016020680069616AC4
:102CC0000870606A401C6062208D401E2085608D07
:102CD000401E6085208D00287FF464AF84F83D702D
:102CE00084F83E5084F83C50CBE70220C9E700004E
:102CF000020010000000FFFF040001004800002057
:102D00002DE9FF4F83B09A46DDE9119793460446BB
:102D1000DDF84080FFF7E2FD054694F83D002028ED
:102D20007FD11923012240492046009501F0CAFABB
:102D3000002876D194F83C00012872D0012084F854
:102D40003C0020680168C90703D1016841F0010116
:102D500001602068016821F400610160212084F88D
:102D60003D00402084F83E0000262664C4F82480FC
:102D7000A4F82A90608D20852C48E062CDE900758A
:102D800053465A462046049901F01CFA70B930E0C7
:102D90002A463946204601F073FB58B1206C0428BE
:102DA00004D12068016841F400710160012007B07E
:102DB000BDE8F08F606A216800780861606A401C95
:102DC0006062218D491E89B22185628D521E628505
:102DD00022685369DB435B070BD469B1007810614B
:102DE000606A401C6062208D401E2085608D401E00
:102DF0006085208D0028CBD12A463946204601F037
:102E000035FA0028CAD154F83D0B016841F400712D
:102E10000160202004F81E09E67766770020C6E7E7
:102E2000FFE70220C3E70000020010000000FFFFE0
:102E300010B50068094988420FD10948C16921F4D9
:102E40000011C161074C40212046FFF7A3FB20463B
:102E5000BDE810408021FFF79DBB10BD005400402D
:102E600000100240000C014010B586B00021009116
:102E700001910291039100680F4988421AD10F4CC9
:102E8000A06940F00800A061A069694600F0080050
:102E90000490C02000901220019003200390084865
:102EA000FFF716FCE06940F40010E061E06900F40F
:102EB0000010049006B010BD005400400010024005
:102EC000000C01400248816802781144816070471B
:102ED0003C000020074810B5016841F01001016076
:102EE000032000F0A7F80F2000F006F800F050F8DB
:102EF000002010BD0020024030B505461F4887B0B5
:102F0000C16941F02001C161C06906A900F020003B
:102F1000009001A800F036F90498B0B100F052F921
:102F200040001749174AB0FBF1F11748491E0260EB
:102F3000416040F2E7320021C0E9032181608161F4
:102F400000F056FB040003D015E000F03BF9E8E781
:102F50000D4800F0E3FB04000DD1372000F03CF8F1
:102F6000102D07D200222946372000F043F80748E9
:102F7000056000E0012407B0204630BD001002408B
:102F800040420F0000140040900400204000002048
:102F90000F4808B5816941F001018161816901F043
:102FA00001010091C16941F08051C161C0690022F5
:102FB00000F0805000900F21901E00F01BF8054893
:102FC000416821F0E06141F00071416008BD0000FE
:102FD0000010024000000140002809DB00F01F0241
:102FE000012191404009800000F1E020C0F800116B
:102FF00070470000F0B40E4B1B680C46C3F302236D
:10300000C3F10705042D00D90425191D072901D294
:10301000002300E0DB1E012606FA05F1491E2140CF
:1030200099409E40761E16403143F0BC02F0B3BA80
:103030000CED00E0064900F0070208684FF6FF03B8
:10304000184040EA0220034A10430860704700001D
:103050000CED00E00000FA052DE9F0470F460500F1
:1030600061D0434E306800F00700B84209D23068A2
:1030700020F0070038433060306800F00700B842A5
:1030800051D128683B4C810712D5400703D56068B1
:1030900040F4E06060602878000703D5606840F481
:1030A000605060606068A96820F0F00008436060CC
:1030B0002878C00728D06868012810D02168022825
:1030C00010D0890700292EDA616821F0030101433D
:1030D0006160FFF703FC804641F288390DE021680A
:1030E0008903EFE78901EDE7FFF7F8FBA0EB0801A3
:1030F000494502D90320BDE8F0876068696800F09F
:103100000C00B0EB810FEFD1306800F00700B8423F
:103110000BD9306820F0070038433060306800F089
:103120000700B84201D00120E5E72878400705D51F
:103130006068E96820F4E060084360602878000770
:1031400006D56068296920F4605040EAC1006060DB
:1031500000F058F86168084AC1F30311515CC84097
:103160000649086006480068FFF7C6FE0020C2E76F
:103170000020024000100240D277000848000020E2
:10318000400000200F2202600C4A536803F0030342
:103190004360536803F0F0038360536803F4E06313
:1031A000C36052684FF4E06303EAD202026104484C
:1031B000006800F00700086070470000001002403F
:1031C000002002400448054900684968044AC1F3E8
:1031D0000221515CC84070474800002000100240A6
:1031E000E27700080448054900684968044AC1F3C9
:1031F000C221515CC84070474800002000100240C6
:10320000E27700080E4A51680E4801F00C03042BC7
:1032100011D0082B0FD10C48C1F38343C903C05C04
:103220000AD55168084AC1F34041921E515C054AD3
:103230005043B0FBF1F07047044948437047000029
:103240000010024000127A00C277000800093D0019
:103250002DE9F84F040070D02078C04DC00749D048
:103260006868C0F38100012807D06868C0F3810056
:10327000022809D16868C00306D52868800339D5BB
:1032800060680028E7D035E06068B0F5803F0BD07B
:1032900010B1B0F5A02F11D0286820F4803028603C
:1032A000286820F4802002E0286840F480302860FC
:1032B000606890B1FFF712FB06460AE0286840F408
:1032C00080202860F0E700BFFFF708FB801B642820
:1032D00073D828688003F7D50CE0FFF7FFFA06469D
:1032E00005E000BFFFF7FAFA801B6428F0D82868D1
:1032F0008003F7D420789A4E80074FF001094FF0F1
:10330000000839D5686810F00C0F07D06868C0F362
:103310008100022809D16868C00306D428688007A4
:1033200014D52069012808D110E02069B0B1C6F891
:103330000090FFF7D3FA074605E00AE1FFF7CEFA5F
:10334000C01B0228C4D828688007F7D5286861699F
:1033500020F0F80040EAC10028600DE0C6F80080C7
:10336000FFF7BCFA074604E0FFF7B8FAC01B0228D3
:1033700023D828688007F7D4207800072CD579480F
:10338000A169D9B1C0F80090FFF7A8FA074604E098
:10339000FFF7A4FAC01B02280FD8686A8007F7D588
:1033A00071484FF4FA510068B0FBF1F0009000BF93
:1033B0000098411E0091FAD20EE080E0C0F8008033
:1033C000FFF78CFA074604E0FFF788FAC01B0228D3
:1033D00075D8686A8007F7D42078400760D5E86917
:1033E0000027C00008D4E86940F08050E861E8692F
:1033F000012700F0805000905C480168C90513D493
:103400000168834641F480710160FFF767FA8246E4
:1034100006E000BFFFF762FAA0EB0A0064284ED86E
:10342000DBF80000C005F5D5E06801280AD008B136
:10343000052813D0286A20F001002862286A20F0AD
:10344000040002E0286A40F001002862E06841F2CE
:10345000883B98B1FFF742FA82460BE0286A40F0B9
:1034600004002862EEE700BFFFF738FAA0EB0A017C
:1034700059455AD8286A8007F6D50CE0FFF72EFA8E
:10348000824605E0FFF72AFAA0EB0A0159454CD81D
:10349000286A8007F6D41FB1E86920F08050E861FF
:1034A000E06988B36968C1F38101022944D0022828
:1034B000C6F8608004D0FFF711FA044638E034E023
:1034C000FFF70CFA074604E0FFF708FAC01B0228D2
:1034D0002BD828688001F7D4206AB0F5803F05D149
:1034E0006868A16820F4003008436860D4E90801E6
:1034F0000843696821F4741108436860C6F8609055
:10350000FFF7ECF9044606E025E000BFFFF7E6F917
:10351000001B022809D828688001F7D51BE000BFEE
:10352000FFF7DCF9001B022802D90320BDE8F88F61
:1035300028688001F4D40EE00128F7D06868226A78
:1035400000F48031914204D1616A00F47010884225
:1035500001D00120EAE70020E8E700000010024067
:1035600000004242800442424800002000700040B7
:103570007047704770B590F83C20012A2CD0012488
:1035800080F83C40022280F83D2003685A689D681C
:1035900022F070060A6832435A60104B02689A4261
:1035A0000ED00F4B9A420BD0B2F1804F08D00D4B8A
:1035B0009A4205D00C4B9A4202D00C4B9A4204D14D
:1035C000496825F080031943916080F83D4000214F
:1035D00080F83C10084670BD022070BD002C0140F0
:1035E000003401400004004000080040000C00408E
:1035F00010B5040003D094F83D0010B107E001209D
:1036000010BD002084F83C00204600F01FF8022086
:1036100084F83D00211D206801F00EFD012084F892
:10362000460084F83E0084F83F0084F8400084F8A7
:10363000410084F8420084F8430084F8440084F890
:10364000450084F83D00002010BD000008B5016869
:103650001648B1F1804F0BD0154A914210D1C16983
:1036600041F00401C161C06900F00400009008BD90
:10367000C16941F00101C161C06900F00100F5E7D5
:103680000C4A9142F3D1C16941F01001C161C06996
:10369000002200F01000009005213620FFF7AAFC60
:1036A000BDE808403620FFF797BC0000001002403C
:1036B000000800400010004090F83D10012901D0A2
:1036C00001207047022180F83D1000680E498842B1
:1036D0000ED00E4988420BD0B0F1804F08D00C4973
:1036E000884205D00B49884202D00B49884204D158
:1036F000816801F00701062903D0016841F001014A
:103700000160002070470000002C0140003401409F
:103710000004004000080040000C004090F83D10FC
:10372000012901D001207047022180F83D10016875
:10373000CA6842F00102CA6000680E4988420ED091
:103740000D4988420BD0B0F1804F08D00B49884218
:1037500005D00B49884202D00A49884204D18168C9
:1037600001F00701062903D0016841F00101016061
:1037700000207047002C014000340140000400404C
:1037800000080040000C004070B5044690F83C0072
:103790000025012817D0012684F83C60022084F817
:1037A0003D002068826822F0770222F47F42826026
:1037B0000868502838D00DDC20284FD005DC90B3A5
:1037C000102811D14AE0022070BD302846D0402890
:1037D0000AD13BE060282FD070280DD0B0F5805F73
:1037E00003D0B0F5005F12D0012584F83D600020C1
:1037F00084F83C00284670BDCB68D1E901212068DF
:1038000001F075FC2068816841F0770109E0CB6820
:10381000D1E90121206801F06AFC2068816841F447
:1038200080418160E1E719E0CA684968206801F0D9
:1038300033FD5021206806E0CA684968206801F01D
:103840003CFD6021206801F05CFCCEE7CA68496855
:10385000206801F021FD40212068F4E7226801463C
:103860001046F0E770472DE9F04104460068C6684D
:1038700005694FF00007A90713D5B10711D5F91E47
:10388000016101202077206880698007204602D0EE
:10389000FFF7E8FF04E000F0AFF8204600F041F940
:1038A0002777680716D5700714D521686FF00400D4
:1038B0000861022020772068806910F4407F20464C
:1038C00002D0FFF7CFFF04E000F096F8204600F0AA
:1038D00028F92777280715D5300713D521686FF009
:1038E00008000861042020772068C069800720460E
:1038F00002D0FFF7B7FF04E000F07EF8204600F0AA
:1039000010F92777E80616D5F00614D521686FF070
:1039100010000861082020772068C06910F4407FFB
:10392000204602D0FFF79EFF04E000F065F8204635
:1039300000F0F7F82777E80708D0F00706D02168ED
:103940006FF001000861204600F046F9280608D50E
:10395000300606D521686FF0800008612046FFF729
:1039600007FE680608D5700606D521686FF040008E
:103970000861204600F068F9A8060AD5B00608D507
:1039800021686FF0200008612046BDE8F041FFF794
:10399000F0BDBDE8F081000000B585B000210091C8
:1039A00001910291039100680F49884219D10F4893
:1039B000816941F0200181618069694600F0200041
:1039C00004904FF48050009002200190039008482A
:1039D000FEF77EFE0748416841F0E06141F4805106
:1039E000416005B000BD000000080040001002402A
:1039F0000014014000000140704770B5044690F883
:103A00003C0000260D4601280FD0012084F83C0020
:103A10006AB1042A1DD0082A2FD00C2A3FD00126D3
:103A2000002084F83C00304670BD022070BD206844
:103A300001F070FB2068816941F008018161206814
:103A4000816921F004018161206881692A6911433B
:103A500011E0206801F08EFB2068816941F400616B
:103A600081612068816921F48061816120688169B8
:103A70002A6941EA02218161D2E7206801F0B0FBA6
:103A80002068C16941F00801C1612068C16921F065
:103A90000401C1612068C1692A69114311E02068ED
:103AA00001F0D2FB2068C16941F40061C161206866
:103AB000C16921F48061C1612068C1692A6941EA54
:103AC0000221C161ACE710B5040003D094F83D00B9
:103AD00010B107E0012010BD002084F83C00204612
:103AE00000F01EF8022084F83D00211D206801F03E
:103AF000A3FA012084F8460084F83E0084F83F00D1
:103B000084F8400084F8410084F8420084F84300BF
:103B100084F8440084F8450084F83D00002010BD7E
:103B20007047704710B50446022249B104290ED0EF
:103B3000082913D094F84100012816D0012010BDA7
:103B400094F83E000128F9D184F83E200FE094F863
:103B50003F000128F2D184F83F2008E094F84000AB
:103B60000128EBD184F8402001E084F841200122B3
:103B7000206801F0AFFA13492068134A884201D047
:103B8000904203D1436C43F400434364206888426D
:103B90000DD090420BD0B0F1804F08D00B49884235
:103BA00005D00B49884202D00A49884204D1816875
:103BB00001F00701062903D0016841F0010101600D
:103BC000002010BD002C01400034014000040040E2
:103BD00000080040000C004070B50446006816491B
:103BE000884201D1FFF76EF914492068884221D13B
:103BF000134C6068401C60606068642801DB002032
:103C000060606068A1680F4D884201DA012200E01F
:103C1000002204212846FEF75CFE6068E1688842C5
:103C200001DA012200E000222846BDE870401021A0
:103C3000FEF74FBE70BD00000014004000100040B1
:103C400000000020001401407047704770470000DA
:103C5000F8B5016804460868CA684B6910F00F0F90
:103C60004FF000055AD003F0010602F49077374375
:103C700065D0C10705D0D10503D5616C41F00101C4
:103C80006164410705D5D90703D0616C41F0020199
:103C90006164810705D5D90703D0616C41F0040147
:103CA0006164010707D502F02001314303D0616C44
:103CB00041F008016164616C00293BD0800604D5A5
:103CC000900602D5204601F039FB20684069616CFE
:103CD000C0F3801001F00801014320462BD001F011
:103CE00006FB20684069400621D52068143050E862
:103CF000001F21F0400140E80012002AF5D1E06BDE
:103D0000A8B16D494163E06BFEF79AFB002811D022
:103D1000E06B416B01B0BDE8F040084783060ED56B
:103D200093060CD52046BDE8F84001F007BB2046BD
:103D3000FFF78CFFF8BDFFF789FF6564F8BD266BC0
:103D40002023012E7CD1C6067AD5D60678D5086800
:103D50004868009048694FF00206400640D5E16B84
:103D6000086840680004000CE8D0A28D8242E5D9C2
:103D7000E085886920282DD020680C3050E8001F8D
:103D800021F4807140E80012002AF5D12168143135
:103D900051E8000F20F0010041E80002002AF5D1AF
:103DA0002068143050E8001F21F0400140E8001264
:103DB000002AF5D184F84230256320680C3050E8A1
:103DC000001F21F0100140E80012002AF5D1E06B3D
:103DD000FEF712FB6663A08DE18D401A81B22AE0E6
:103DE000A08DE18D401A81B2E08D0028A6D0002977
:103DF000A4D022680C3252E8000F20F4907042E800
:103E00000007002FF5D12068143050E8002F22F071
:103E1000010240E80027002FF5D184F842302563E5
:103E200020680C3050E8002F22F0100240E80023F8
:103E3000002BF5D166632046FFF707FFF8BDFFE7CB
:103E400005062BD5150629D594F841002128F5D172
:103E5000A068B0F5805F01D12069B0B1206A411C33
:103E60002162216800784860E08C401E0004000C4C
:103E7000E084E3D12068C16821F08001C16020683E
:103E8000C16841F04001C160D8E7206A0088C0F3F2
:103E900008004860206A801C2062E5E74006CDD516
:103EA0005006CBD5CA68204622F04002CA6084F88A
:103EB000413000F0EFF8C1E7DF52000870B50400B0
:103EC00004D094F84100002510B106E0012070BD37
:103ED00084F84050204600F023F8242084F8410064
:103EE0002068C16821F40051C160204601F088FAC1
:103EF0002068016921F4904101612068416921F045
:103F00002A0141612068C16841F40051C1606564C3
:103F1000202084F8410084F842006563002070BDD1
:103F200030B585B000240094019402940394006895
:103F3000184988422CD11848C16941F48021C161D7
:103F4000C16901F480210491816941F00801816116
:103F50008069124D00F0080004904FF480600090DA
:103F6000022001900320039069462846FEF7B0FB2B
:103F7000E814CDE90004694628460294FEF7A8FB40
:103F8000002205212720FFF735F82720FFF724F826
:103F900005B030BD0048004000100240000C014058
:103FA00090F84230202B01D00220704721B11AB185
:103FB0000023036301F080BA0120704710B5006848
:103FC000084988420DD10848002201780748006856
:103FD00001F0EEFCBDE81040012203490448FFF760
:103FE000DFBF10BD00480040000000203800002066
:103FF000480400202DE9F843044690F84100984613
:1040000016460D46202802D00220BDE8F88385B16F
:104010007EB100206064212084F84100FEF75EFC40
:10402000A6848146E684A0682027B0F5805F02D090
:1040300003E00120E9E7206910B12E4600250EE0DB
:1040400000260CE08021204601F051FAA8B9C6B143
:1040500016F8010B21684860E08C401EE084E08C7B
:104060004B464FF00002CDF800800028EAD14FF017
:104070004001204601F03BFA40B184F84170032032
:10408000C3E735F8020BC0F30800E3E784F841709A
:104090000020BAE77047FEE701684A69D24352053B
:1040A0000FD46FF480624A61002140F8301F202253
:1040B00042738173026942F00402026101730120BC
:1040C00070470020704700002DE9F84F0446006853
:1040D00089460B9D01689846174641F4806101604E
:1040E0002068016841F48071016000954FF0011B68
:1040F0000022594620460A9B00F0E4F84FF4007A6B
:1041000040B120680068C00501D5C4F840A0032074
:10411000BDE8F88F216809F0FE0008612B462849A8
:1041200020460A9A00F016F9F0BB206841698069C0
:1041300000902A4620460A9900F0A2F940B1206C6E
:1041400004283AD12068016841F40071016034E02C
:10415000FEB2B8F1010F09D02168380A08612A4679
:1041600020460A9900F08CF90028E8D12068066101
:104170002A4620460A9900F083F90028DFD12068FA
:10418000016841F480710160009500225946204683
:104190000A9B00F097F80028B3D1216809F0FF00CE
:1041A00040F00100086100E007E02B46044920468A
:1041B0000A9A00F0CFF80028AAD00120A8E7000052
:1041C000020001002DE9F843044600680D46DDE9D0
:1041D000089701689846164641F4807101604B4685
:1041E00000224FF001112046009700F06BF848B113
:1041F00020680068C00502D54FF4007020640320D9
:10420000BDE8F883216805F0FE0008613B464A4698
:104210001549204600F09EF888B9206841698069F8
:1042200000903A464946204600F02AF948B1206CF1
:10423000042804D12068016841F400710160012064
:10424000DEE7F5B2B8F1010F09D02168300A086144
:104250003A464946204600F013F90028E7D1206885
:1042600005610020CCE700000200010070B5164691
:104270000D4604461EE02046FFF70EFF08B1012060
:1042800070BD681C16D0FEF729FB801BA84200D821
:1042900085B920684069C04340070BD5002044F829
:1042A000300F20216173A073216941F02001216149
:1042B0002073E4E720684069C0434007DBD4002056
:1042C00070BD00002DE9F047984617460D4604469C
:1042D000C1F30746DDF820902AE000BFB8F1FF3FA8
:1042E00026D0FEF7FBFAA0EB0901414502D8B8F150
:1042F000000F1DD12068012E16D0806925EA00002C
:104300000004000C12D00020B84211D1002044F863
:10431000300F20216173A073216941F020012161D8
:1043200020730120BDE8F0874069E7E70120EBE753
:104330002068012E0AD0806925EA00000004000CE4
:1043400006D00020B842C9D00020EBE74069F3E76F
:104350000120F7E72DE9F047984616460D4604463A
:104360004FF000094FF0200AC1F3074723E020680F
:104370004069C043400515D42068016841F40071CC
:10438000016021686FF480604861C4F8309084F85F
:104390003DA084F83E90216C41F00401216484F832
:1043A0003C9021E0701C06D0FEF798FAA0EB0800C4
:1043B000B04203D816B1012F1FD021E02068012F91
:1043C00015D0806925EA00000004000C18D000BF59
:1043D00044F8309F84F80DA084F80E90216941F0D4
:1043E0002001216184F80C900120BDE8F08740692C
:1043F00025EA00000004000CEAD12068406901E0D1
:104400002068806925EA00000004000CAFD1ECE7C9
:104410002DE9F041002590460E460446202728E06D
:104420004069C043C0060CD454F8301B6FF0100034
:10443000486144F810596777A577206A206225778C
:1044400014E0FEF74BFAA0EB0800B04200D886B9A2
:1044500020684069C04340060BD544F8305F67735D
:10446000A573206940F02000206125730120BDE87C
:10447000F08120684169C9434906D1D40020F6E79C
:1044800070B516460D4604461EE02046FFF704FEB2
:1044900008B1012070BD681C16D0FEF71FFA801B02
:1044A000A84200D885B920684069C04300060BD5F2
:1044B000002044F8300F20216173A073216941F07E
:1044C000200121612073E4E720684069C0430006B1
:1044D000DBD4002070BD00001FB5002003900A222D
:1044E000022103A88DE8070001234722D0210948B3
:1044F000FEF7D8FA40B10748FEF7F6F90548FEF78F
:104500000DFA002004B010BDBDF80C0040BA00B296
:10451000F8E700001C0300201FB500208DF80C00F8
:104520000121642203A88DE807000B466B22D021ED
:104530000148FEF7E5FB1FBD1C03002010B5174B1B
:104540009AB015AC0FCB84E80F00002115A801F03C
:10455000D1F9134C11491C22A06210316846FBF7B7
:10456000FFFF0021684601F051FA0C49E0611C226E
:104570002C3107A8FBF7F4FF002107A801F046FA49
:10458000064920621C2248310EA8FBF7E9FF0021F2
:104590000EA801F03BFA60621AB010BD5C7700080B
:1045A000100000202DE9F04F85B00024424800940F
:1045B000019402940394816941F0800181618169D1
:1045C00001F080010491816941F0080181618169F4
:1045D00001F008010491816941F020018161816944
:1045E00001F020010491816941F480718161816948
:1045F00001F480710491816941F004018161816954
:1046000001F004010491816941F010018161806928
:10461000DFF8A89000F0100040F255160490002238
:1046200031464846FEF755F9DFF894A04FF400678D
:10463000002239465046FEF74CF9DFF888B04FF4B7
:104640000078002241465846FEF743F9FF20012535
:104650008DE8310069461C48FEF73AF8A803CDE919
:104660000004694619480294FEF732F8CDE9006566
:104670000226CDE9024669464846FEF729F84FF47E
:10468000A8708DE8310069465846FEF721F800977A
:104690000396CDE9015469465046FEF719F8CDF866
:1046A00000800396CDE9015469465846FEF710F89C
:1046B00005B0BDE8F08F000000100240001401407A
:1046C0000010014000200140001C0140000C01408E
:1046D0000D4810B50B4901600C49416000214FF4B1
:1046E00080428160C0E9031241618161C161016260
:1046F000FEF714F9002803D0BDE81040FDF704BE12
:1047000010BD0000005400401C030020A0860100E2
:1047100010B586B0002416480094019402940394C6
:1047200004944FF08041059401604721C0E90114D1
:104730004FF6FF71C0E903148461FEF759FF08B119
:10474000FDF7E2FD4FF48050009069460848FFF7FE
:104750001BF808B1FDF7D8FD049404A9044805949A
:10476000FEF708FF002801D0FDF7CEFD06B010BD12
:104770007003002010B58EB00024079408940994AB
:104780000A940B941C2168460C94FBF71BFF1E48EF
:104790001C4901604721C0E9011444F61F61C0E9CA
:1047A00003148461FEF724FF08B1FDF7ADFD4FF45B
:1047B0008050079007A91448FEF7E6FF08B1FDF7FF
:1047C000A3FD1148FFF77FF908B1FDF79DFD0B949C
:1047D0000BA90D480C94FEF7CDFE08B1FDF794FD32
:1047E0006020CDE900040294002269460648049442
:1047F000FFF703F908B1FDF787FD0348FFF7CCF891
:104800000EB010BD00080040B80300201CB5002405
:104810000E4800940C49019401604721C0E901143D
:1048200063218461C160FEF7E3FE08B1FDF76CFD12
:104830000094694605480194FEF79CFE002801D0CB
:10484000FDF762FD1CBD00000010004000040020C8
:104850000C4810B50A4901604FF41651416000211F
:1048600081600C22C160C0E904128161C161FFF75F
:1048700025FB002803D0BDE81040FDF745BD10BD65
:104880000048004048040020FEE7FEE70A2801DA5D
:104890000A2002E0AA2800DDAA204FF4FA6148436A
:1048A000B42190FBF1F0034900F5FA700968486300
:1048B00070470000B803002094B0DFF814B2DFF8AE
:1048C0001482DFF81492854C854F4FF0320A00268F
:1048D0004FF0FF326846A16A01F020F8DDE90010D0
:1048E0001029F5D1C5B2A5F13F00172878D2DFE82D
:1048F00000F018900C5B901390903D908A90907807
:104900000E908E90908035108800012002E0266085
:1049100027E002202060DBE703202060C8F8006069
:104920006CE0E06802F04EFB05460091A06802F0E2
:1049300049FB024620690B4600990290CDE90051DF
:1049400068A103A8FBF7C4FC03A8FBF7A5FD82B28E
:10495000642303A96948FFF74DFBB9E720680028E5
:10496000B6D1C8F80060C9F80060B1E72068002837
:10497000AED1C8F800A0C9F800A0012211465D46DA
:104980005846FDF7A6FF00224FF400615C48FDF792
:10499000A0FF012251025B48FDF79BFF002240214E
:1049A0002846FDF796FF93E7206808BBC8F800A0EB
:1049B000C9F800A0002201215846FDF78AFF012214
:1049C000D1024F48FDF785FF00224FF400714D489A
:1049D000FDF77FFF012240215846FDF77AFF2AE0CC
:1049E00017E0206820B9C8F800603C20C9F8000032
:1049F00021E02068F8B93C20C8F80000C9F8006040
:104A000019E0A02000E05A20FFF740FF13E0142037
:104A1000FAE7232D16D00A2D14D0412D9DD04D2D0F
:104A20009BD0542D99D0532D97D0472D95D03F2D05
:104A300093D00D2D91D0606913288EDA3D54401C1F
:104A4000606145E760693E54397850290AD0702981
:104A500008D0442913D0642911D056291FD07629B3
:104A60001DD025E0781C00F013FE02F063F9A06071
:104A7000A06802F0A7FA0B46024623A10BE0781CBF
:104A800000F006FE02F056F9E060E06802F09AFAE3
:104A90000B46024621A103A8FBF71AFC08E0781C8C
:104AA000FBF7EDFC2061226921A103A8FBF710FCB4
:104AB00003A8FBF7F1FC82B2642303A90F48FFF7B8
:104AC00099FA142106486661FBF77CFD00E70000B7
:104AD00000140140080000200C00002010000020FD
:104AE000B4000020503D252E31662C20443D252E5B
:104AF00031662C20563D25640D0A00004804002034
:104B000000100140002001405365742050203D20DA
:104B1000252E3266204F4B0D0A000000536574208D
:104B200044203D20252E3266204F4B0D0A00000008
:104B3000536574205370656564203D202564204FC3
:104B40004B0D0A009CB04FF00009EC48CDF84490A2
:104B5000CDE912904FF0804018904FF07E50CDF884
:104B60005090CDF854901690FFF7D6FC4FF4FA70A1
:104B700000F0B4FEE2A16846FBF7AAFB6846FBF72B
:104B80008BFC82B264236946E548FFF733FA0025BF
:104B90004FEA0504FFF7A0FC02F08CFB294602F067
:104BA0003DFA0546052000F099FE641C642CF1DBFB
:104BB000DC49284602F0A0FADB4D686002F002FAF8
:104BC00002460B46D9A16846FBF782FB6846FBF715
:104BD00063FC82B264236946D148FFF70BFAFDF704
:104BE0007DFE0446DFF868A3DFF868B34FEA0508E6
:104BF000FFF772FC02F05EFBD8F8041002F0B8FC7C
:104C00000646504503D2D448864200DA0026FDF716
:104C100065FE0746001B02F065FBD04902F06CFA06
:104C200005463C46584500DDCD4DCE49304602F0A4
:104C300063FA294602F09EFB169902F09BFB494657
:104C400002F0ECF98146D8F800004546002808D06B
:104C50002868012806D0286802287DD02868032803
:104C60007BD047E1FDF752FBBF491190884233DD0D
:104C70004846149902F07CFC189902F07BFB02F084
:104C8000FDFAC0F1320132305A2901DD5A2102E029
:104C9000002900DA00215A2801DD5A2002E000280C
:104CA00000DA0020B14A1160B1490860B14D01221B
:104CB00011462846FDF70DFE0022E914AE48FDF727
:104CC00008FE01225102AD48FDF703FE00224021FB
:104CD0002846FDF7FEFD0DE1A44E00243460A44FEC
:104CE0003C604FF4FA7000F0F9FDA020FFF7CEFD14
:104CF0004FF41675284600F0F1FDFDF707FB119003
:104D00001420FFF7C3FD284600F0E8FDFDF7FEFA8A
:104D100012905A20FFF7BAFD681000F0DFFD1399DA
:104D2000119802F0F3FA29D2DDE9120102F0EEFA4D
:104D300024D2904D002201212846FDF7CAFD012210
:104D4000D1028D48FDF7C5FD002269158B48FDF79E
:104D5000C0FD0122402101E035E0A7E02846FDF733
:104D6000B8FD3220306038604FF4FA70FDF700FC77
:104D700034603C60C820FDF7FBFB12E0DDE9110167
:104D800002F0C4FB0DD27E4C2046FDF701FA21460D
:104D9000484602F043F981462146149802F03EF954
:104DA0000CE07848FDF7F4F9754C4846214602F0CE
:104DB000DFFB81462146149802F0DAFB1490FDF7E0
:104DC0008DFD044696E0FDF7E7FA06461598301A81
:104DD00002F070FAE96802F0CDFA0746304602F0B8
:104DE00069FAA96802F0C6FA394602F017F902F02A
:104DF00045FA1596002801DB014600E041422A6988
:104E000001EBD171A2EB61010F2900DA0F210D1A1C
:104E10000E185A2D01DD5A2504E06FF05900854225
:104E200000DA05465A2E01DD5A2604E06FF05900DB
:104E3000864200DA0646002D0DDB012211464D4860
:104E4000FDF747FD00224FF400614B48FDF741FD9F
:104E5000464805600CE0002201214648FDF739FD77
:104E60000122D1024448FDF734FD40486942016007
:104E7000002E0CDB012251024048FDF72AFD0022E2
:104E800040213C48FDF725FD3948066032E000220C
:104E90004FF400713948FDF71CFD002240213548D0
:104EA000FDF717FD32487142016023E03648006883
:104EB0000121C3B20020312519AA3026C0F107070D
:104EC00001FA07F71F4201D0155400E01654401CA8
:104ED0000828F3DB0A208DF86C0000208DF86D00A7
:104EE0006423092219A90E48FFF784F84FF4FA70D9
:104EF00000F0F4FC0A2000F0F1FC79E600007041BB
:104F000053797374656D2052656164792120436122
:104F10006C6962726174696E672E2E2E0D0A000034
:104F2000480400200000C842100000204F6666734D
:104F300065743A20252E31662E2057616974696E9A
:104F40006720666F7220436D642E0D0A000000001A
:104F5000000048C2CDCCCC3D0000484200007A445D
:104F60000AD7233C000003430000C841080000208A
:104F70000C000020001401400010014000200140FE
:104F80000000B4420000B4C2081C0140012000F03F
:104F9000A5FCFBE710B5502080F31188BFF34F8FBD
:104FA000BFF36F8F01F04CFD18B104494FF08050F2
:104FB0000860002080F3118810BD000004ED00E0BF
:104FC00030B58FB028216846FBF7FCFA14210AA8F7
:104FD000FBF7F8FA01210804CDE90010002402943F
:104FE00002250491CDE907504FF4E010099068467E
:104FF000FEF72EF908B172B6FEE70F20CDE90A05DB
:105000004FF48060CDE90C4002210AA80E94FEF70F
:1050100023F8002801D072B6FEE70FB030BD70470C
:105020000148FEF720BC0000000400200148FEF704
:105030001ABC000090040020F0B50268204C214DFD
:10504000214E224F224B4FF0804CA04209D0984273
:1050500007D0604505D0A84203D0B04201D0B84285
:1050600004D122F0700E4A6842EA0E02A04209D032
:10507000984207D0604505D0A84203D0B04201D085
:10508000B84203D122F44075CA682A434D6922F020
:1050900080022A4302608A68C2620A688262A04271
:1050A00001D0984201D1096901630121416101697F
:1050B000C90703D0016921F001010161F0BD0000C1
:1050C000002C01400004004000080040000C00409B
:1050D0000034014010B501F01F030121046A99401A
:1050E0008C430462016A9A401143016210BD10B5FD
:1050F000846842EA032224F47F440A432243826004
:1051000010BD826822F070020A4342F007018160FC
:1051100070470000F0B5036A026A22F001020262E1
:1051200042688469124E24F073050C682C4323F006
:1051300002058B682B430D4DA84201D0B04205D12A
:1051400023F00807CB683B4323F00403A84201D0B7
:10515000B04205D14D6922F4407215438A692A4351
:1051600042608461496841630362F0BD002C0140E4
:1051700000340140F0B5026A036A23F010030362B1
:10518000436884690D6824F4E64444EA05248D6884
:1051900022F0200242EA05120F4D104EA84201D023
:1051A000B04206D1CF6822F0800242EA071222F014
:1051B0004002A84201D0B04207D14D6923F44063B8
:1051C00043EA85038D6943EA850343608461496846
:1051D00081630262F0BD0000002C014000340140F8
:1051E000F0B5026A036A23F4807303624368C469FA
:1051F00022F4007224F073050C68124E2C438D6863
:1052000042EA05220E4DA84201D0B04206D1CF6835
:1052100022F4006242EA072222F48062A84201D00E
:10522000B04207D14D6923F4405343EA05138D6919
:1052300043EA05134360C4614968C1630262F0BD7B
:10524000002C01400034014030B5046A026A22F4A7
:10525000805202624268C3690D6823F4E64343EA60
:1052600005238D6824F4005444EA0534084DA8420F
:1052700002D0084DA84204D14D6922F4804242EA8E
:1052800085124260C36149680164046230BD000058
:10529000002C01400034014010B5036A046A24F078
:1052A00001040462846924F0F00444EA021423F047
:1052B0000A020A438461026210BD10B5036A046ADF
:1052C00024F010040462846923F0A00324F47044E1
:1052D00044EA023243EA01118261016210BD10B555
:1052E000406A0021C185C184FEF7B0FC10BD016891
:1052F0000C3151E8002F22F4907241E80023002B7A
:10530000F5D10168143151E8002F22F0010241E883
:105310000023002BF5D1016B012909D101680C3163
:1053200051E8002F22F0100241E80023002BF5D1B4
:10533000202180F8421000210163704708B590F8E1
:105340004210222901D0022008BD82684FF4805308
:105350009A4201D1016921B1816A9A421BD04AB1B6
:105360000AE00268816A5268C2F308020A80816A10
:10537000891C08E0026972B10268526802F07F027B
:105380000A70816A491C8162C18D491E0904090C99
:10539000C18503D01BE002685268F1E70168CA6862
:1053A00022F02002CA600168CA6822F48072CA60D2
:1053B00001684A6922F001024A61202180F8421006
:1053C00000214163026B012A03D0FEF7F7FD0020A4
:1053D00008BD016301680C3151E8002F22F0100272
:1053E00041E80023002BF5D101680A68D20602D5F6
:1053F0000A6849680091818DFEF727FCE7E7000005
:1054000070B5044600680169E26821F44051114317
:1054100001612169A0680843616908432168CA687D
:1054200041F20C639A430243CA6020684169A26951
:1054300021F44071114341611E492068884202D124
:10544000FDF7D0FE01E0FDF7BDFE00EBC00101EB72
:105450000012606864218000B2FBF0F3B3FBF1F34B
:105460006FF018067343B2FBF0F5B2FBF0F605EBF4
:105470008305322303EB0515B5FBF1F5B6FBF1F619
:1054800005F0F00505EB0615B2FBF0F6B2FBF0F007
:10549000B0FBF1F06FF01802504306EB800003EB15
:1054A0000010B0FBF1F0216800F00F002844886084
:1054B00070BD00000038014081628285C2850021F4
:1054C0004164222180F84210016921B10168CA6853
:1054D00042F48072CA6001684A6942F001024A617E
:1054E0000068C16841F02001C160002070472DE9CB
:1054F000F843984617460D460446089E24E0701C63
:1055000022D0FDF7EBF9A0EB0800B0421AD8CEB1DB
:105510002068C168490717D5802D15D0402D13D0BC
:105520000168C94309070FD401680025406800904D
:105530002046FFF7DCFE0820606484F8405001201C
:10554000BDE8F8830320FBE72068006835EA000027
:1055500004D00020B842D2D00020F1E70120F9E7C2
:105560000148FEF775BB000048040020FEE7490033
:1055700050EAC12018BF04204A0D18BF40F00100B6
:1055800040F2FF72B2EB515F08BF40F00200012809
:1055900008BF052070470907090E002804DB00F149
:1055A000E02080F80014704700F00F0000F1E020C8
:1055B00080F8141D704740F2013200204FF0E041A6
:1055C00002F07FB8024A0020110702F07AB800000A
:1055D00001FDFFFF10B50446D1E9000100F002F81B
:1055E000206010BDF8B504460D466A4600F072F81A
:1055F00000987E30009000281FDC002213462046D1
:10560000294601F0DDFB18D0002140F608004FF0DC
:10561000000006462046294601F08CFB044640F671
:10562000080006EA00014FF0000034F0004004BF1B
:105630000220FAF7FAFF2046F8BD0098FF280DDB9C
:105640000220FAF7F2FF002213462046294601F015
:1056500083FC8CBF04484FF0FF40F8BD204629462C
:10566000BDE8F84001F066BB000080FF10B50446BD
:105670000A46D4E90003194600F05EF8C4E90001C7
:1056800010BD30380A2801D2012070470020704731
:1056900030B583B00446FAF7C3FF05460020CDE9D4
:1056A0000000024621466846FBF768FA2846FAF7EA
:1056B000BCFFDDE9000103B030BD00000449002259
:1056C0000B685A6209684A6A8242FCD3704700003C
:1056D0007003002010B5144600222260114A21F008
:1056E00000439342A8BF10BD53EA000208BF10BD9B
:1056F000B3F5801FA8BF226807DA362201F0E1FF68
:105700006FF0350221F000432260DFF81CC06FF318
:105710001E510CEB23531A4441F0FF5141F000514C
:10572000226010BD0000F07F02FCFFFFEFF3058058
:10573000002800D0012070472DE9F04106460C46B4
:1057400040F2FF75174635EA14502BD0002213465D
:10575000304601F035FB25D03A463046214601F06F
:10576000B0FF06460C4635EA145010D0002213460E
:10577000304601F025FB15D10220FAF756FFFFF75E
:1057800021FF0A46214662F31E01BDE8F081022096
:10579000FAF74BFFFFF70FFF0A46214662F31E019F
:1057A000BDE8F08130462146BDE8F08186B0FDF7C6
:1057B00091FBFFF705FCFEF7F5FEFEF789FFFFF70B
:1057C00025F8FFF745F8FEF7D5FFFEF7A1FF3548AE
:1057D000FDF7A4FF3448FDF76FFF01223349344839
:1057E000FEF7DEFB3348816941F020018161816968
:1057F00001F020010491816941F00101816180691A
:10580000002500F0010004904FF480500090022029
:10581000CDE901050320284E039069463046FCF788
:1058200057FF2649486840F0E06040F480504860E7
:1058300000212348FEF776F9214C4FF47A70216855
:10584000486347103846FCF793FE2168B800486368
:105850003846FCF78DFE216840F2DC504863C820D2
:10586000FCF786FE114932208860C8601548056043
:10587000012211463046FDF72CF80022F11412489F
:10588000FDF727F8012251021048FDF722F8002207
:1058900040213046FDF71DF8FEF750FE00F025F8D8
:1058A000FEE700000004002070030020000000203C
:1058B0004804002000100240001401400000014094
:1058C000B80300201000002000100140002001401B
:1058D00001460020842900D0C81C704710B500B9CB
:1058E000012000F06FFC002010BD10B500F0B6FCE8
:1058F000002010BD38B5D0E9011204683AB1C36880
:105900002BB100200090204600F089FD38BD2046D4
:10591000BDE83840002200F061BD00002DE9FF41E4
:105920000D004FF00006CDE9016507461ED00024AA
:105930000396501C1FD002B11446FFF7F7FE6946CC
:105940004FF01008E8B103AA2846091D00F08AFFAD
:10595000012813D000960398E8B114494FF0805005
:105960000860BFF34F8FBFF36F8F14E08020314684
:105970002A46009011E04FF0FF34DEE7CDF80080BA
:10598000E9E722462846091D00F0D0FE012808D08C
:1059900054B1402000909DE8070087E80700BDE86B
:1059A000FF81CDF80080F6E70020F3E704ED00E08A
:1059B00037B5054682B000200090140000D10124C4
:1059C000FFF7B4FE4FF0000388B16A4603A92846EA
:1059D00000F04CFE012811D1009890B10A494FF017
:1059E00080500860BFF34F8FBFF36F8F09E02246EE
:1059F00003A9284600F08AFD012802D0FF2005B047
:105A000030BD0020FBE7000004ED00E07FB50D464F
:105A100004464169B0F9080081B1A16971B1FFF78D
:105A200057FFD4E905128DE80700D4E900102B4692
:105A3000226900F0CCFF039004B070BDFFF748FF6F
:105A400003A9CDE90001208A2B4682B2D4E90010D7
:105A500000F090FF012801D00020EDE70398EBE76C
:105A60002DE9F041184C0F460546E6682068001DF8
:105A700000F0B6FA38B9206890F82C100120884060
:105A8000216981432161681C07D137B12168BDE8D4
:105A9000F0410E48091D00F0E7BA20683544B542D0
:105AA0004560216805D2A06BBDE8F041091D00F0FA
:105AB000C3BA606B091D00F0BFFAA06A854200D22C
:105AC000A562BDE8F08100004C000020B405002074
:105AD0002DE9F041054600F0D3FA2E4CA068401C99
